:100000000C942A000C948A060C94B4060C94DE0618
:100010000C9447000C9447000C9447000C94470044
:100020000C9447000C9447000C9447000C94470034
:100030000C9447000C9447000C9447000C94470024
:100040000C948D040C9447000C9447000C944700CA
:100050000C94470011241FBECFE5D8E0DEBFCDBF12
:1000600010E0A0E6B0E0E6EEFEE002C005900D92E2
:10007000A23BB107D9F720E0A2EBB0E001C01D928E
:10008000AA3DB207E1F70E946B040C9471070C942F
:1000900000000E94610448E650E064E080E00E94B5
:1000A000F30360E082E00E94C1030895EF92FF92A3
:1000B0000F931F93CF93DF93E090D700EE2009F4C6
:1000C0000EC14091D600411168C009C1C32FD0E0D4
:1000D000FE01EE54FF4F80818A3231F08F3209F0F9
:1000E00053C004C02F5F03C020E001C020E08E0198
:1000F000021B1109F801EE0FFF1FE554FF4FA0810D
:10010000B181A235B10571F391E001C09F5FFE019D
:10011000E90FF11DEE0FFF1FE554FF4F6081718164
:100120006235710599F38A3279F4A69FC001A79FC1
:10013000900DB69F900D1124FE01EE0FFF1FE554A8
:10014000FF4F918380830AC0CD010E940807FE0102
:10015000EE0FFF1FE554FF4F71836083FE01319660
:10016000EE0FFF1FE554FF4F82E590E091838083FF
:10017000222339F0000F111FF801E554FF4F91833E
:100180008083CE54DF4F18823F5F01C030E03417C8
:1001900008F49CCFFA94F092D500F090D500F110BD
:1001A000F5CF50E05DC0252F30E0F901EE54FF4F50
:1001B000C081CB3231F0CD3209F051C004C08F5F25
:1001C00003C080E001C080E0B901681B7109FB0138
:1001D000EE0FFF1FE554FF4FA081B181A235B1059D
:1001E00071F391E001C09F5FF901E90FF11DEE0F7E
:1001F000FF1FE554FF4F0190F081E02DE235F1053E
:1002000091F3CB3251F4AE0FBF1FF901EE0FFF1F78
:10021000E554FF4FB183A08309C0AE1BBF0BF901AA
:10022000EE0FFF1FE554FF4FB183A083F901319614
:10023000EE0FFF1FE554FF4FA2E5B0E0B183A083AE
:10024000882349F0660F771FFB01E554FF4F82E5D5
:1002500090E091838083F901EE54FF4F10825F5F3D
:10026000541708F4A0CF80E019C0E82FF0E0EE0F9B
:10027000FF1FE554FF4F208131812235310569F0A0
:10028000C901330FAA0BBB0B8093D1009093D2000E
:10029000A093D300B093D40003C08F5F8E1528F3D2
:1002A00060E083E00E94C10383E790E00E94E003E6
:1002B0006091D1007091D2008091D3009091D400D0
:1002C0000E94FE0360E082E00E94C1032FEF80E7FE
:1002D00092E0215080409040E1F700C00000DF91A3
:1002E000CF911F910F91FF90EF90089580E009C08A
:1002F000E82FF0E0EE0FFF1FE554FF4F1182108250
:100300008F5F8A30A8F380E009C0E82FF0E0EE0F9D
:10031000FF1FE554FF4F118210828F5F8930A8F3D1
:100320000E94610448E650E064E080E00E94F3032C
:1003300060E082E00E94C1031092D1001092D200CE
:100340001092D3001092D4001092D0001092CF00DF
:100350001092D6001092D7001092D5000895CF9336
:100360000E949602C82F8E3409F4D1C08D3209F450
:100370006EC030F48A3281F08B3209F44DC085C0F2
:100380008D3309F47FC0833421F08F3209F07DC0B2
:1003900023C00E947601B5C0E091D600F0E0EE5493
:1003A000FF4F8AE280838C2F0E94DD038091D6006C
:1003B0008F5F8093D6008091D7008F5F8093D700A6
:1003C0008091D5008F5F8093D5008FE59AEE0197DD
:1003D000F1F700C0000095C0E091D600F0E0EE54C7
:1003E000FF4F8FE280838C2F0E94DD038091D60027
:1003F0008F5F8093D6008091D7008F5F8093D70066
:100400008091D5008F5F8093D5008FE59AEE01979C
:10041000F1F700C0000075C0E091D600F0E0EE54A6
:10042000FF4F8BE280838C2F0E94DD038091D600EA
:100430008F5F8093D6008091D7008F5F8093D70025
:100440008FE59AEE0197F1F700C000005AC0E091E5
:10045000D600F0E0EE54FF4F8DE280838C2F0E9497
:10046000DD038091D6008F5F8093D6008091D70006
:100470008F5F8093D7008FE59AEE0197F1F700C068
:1004800000003FC00E9456003CC08091D70090E021
:10049000FC01EE0FFF1FE554FF4F20813181211534
:1004A000310571F44C2F50E040535109880F991FCA
:1004B000FC01E554FF4F240F351F3183208318C002
:1004C000A901440F551F220F331F220F331F220F84
:1004D000331F240F351F4C2F50E040535109240F78
:1004E000351F880F991FFC01E554FF4F318320838E
:1004F0008C2F0E94DD038FE59AEE0197F1F700C083
:1005000000008C2F90E09093D0008093CF00CF918B
:100510000895CF93C0E006C061E085E18C1B0E9486
:10052000D405CF5FC430C0F3CF910895FF920F93ED
:100530001F93CF93DF930F2EFEE4FF2EF02D10E0DC
:1005400038C005E1011B60E0802F0E94D405C0E0A7
:1005500029C0C33031F1DFE1DC1B8D2F0E9457062B
:1005600081111FC0812F90E0FC01EE0FFF1FEE0FE5
:10057000FF1FE80FF91FE356FF4FEC0FF11DF0804E
:100580008FE19EE40197F1F700C000008D2F0E94DB
:1005900057068823D9F38FE19EE40197F1F700C055
:1005A0000000CF5FC530A8F261E0802F0E94D40523
:1005B0001F5F143030F28F2DDF91CF911F910F917B
:1005C000FF900895CF93C82F60E083E00E94D40588
:1005D0006C2F661F6627661F8CE00E94D405C6FB41
:1005E000662760F98AE00E94D405C5FB662760F99A
:1005F00089E00E94D405C4FB662760F988E00E9468
:10060000D40561E082E00E94D4058FEC97E0019769
:10061000F1F700C0000060E082E00E94D4058FEC9A
:1006200097E00197F1F700C00000C3FB662760F96F
:100630008CE00E94D405C2FB662760F98AE00E9424
:10064000D405C1FB662760F989E00E94D4056C2FB0
:10065000617088E00E94D40561E082E00E94D405C8
:100660008FEC97E00197F1F700C0000060E082E0B6
:100670000E94D4058FEC97E00197F1F700C00000CD
:10068000CF910895CF93C82F61E083E00E94D405F5
:100690006C2F661F6627661F8CE00E94D405C6FB80
:1006A000662760F98AE00E94D405C5FB662760F9D9
:1006B00089E00E94D405C4FB662760F988E00E94A7
:1006C000D40561E082E00E94D4058FEC97E00197A9
:1006D000F1F700C0000060E082E00E94D4058FECDA
:1006E00097E00197F1F700C00000C3FB662760F9AF
:1006F0008CE00E94D405C2FB662760F98AE00E9464
:10070000D405C1FB662760F989E00E94D4056C2FEF
:10071000617088E00E94D40561E082E00E94D40507
:100720008FEC97E00197F1F700C0000060E082E0F5
:100730000E94D4058FEC97E00197F1F700C000000C
:10074000CF9108952FE788E391E0215080409040B9
:10075000E1F700C0000082E00E94E20288E20E940D
:10076000E2028CE00E94E20281E00E94E2028FEC51
:1007700097E00197F1F700C0000086E00E94E202D6
:100780000895811105C080E8860F0E94E202089555
:10079000813029F480EC860F0E94E20208958230B5
:1007A00029F484E9860F0E94E2020895833021F43F
:1007B00084ED860F0E94E20208950E94420308958C
:1007C0000F931F93CF938C01C0E003C00E94DD0301
:1007D000CF5FF801EC0FF11D80818111F7CFCF9130
:1007E0001F910F910895CF93DF93EA010E94C103F7
:1007F000CE010E94E003DF91CF910895CF92DF9266
:10080000EF92FF921F93CF93DF93CDB7DEB7609740
:100810000FB6F894DEBF0FBECDBF6B017C01611532
:1008200071058105910521F480E30E94DD033BC041
:1008300099235CF48DE20E94DD03F094E094D0945F
:10084000C094C11CD11CE11CF11C10E015C0C701F3
:10085000B6012AE030E040E050E00E943E07E1E0CF
:10086000F0E0EC0FFD1FE10FF11D605D60831F5F85
:10087000C22ED32EE42EF52EC114D104E104F104CE
:1008800031F7FF24FA94F10E0CC0E1E0F0E0EC0F38
:10089000FD1FEF0DF11DF7FCFA9580810E94DD032D
:1008A000FA94FF2094F760960FB6F894DEBF0FBE5F
:1008B000CDBFDF91CF911F91FF90EF90DF90CF9050
:1008C000089581E00E94E2028FEC97E00197F1F732
:1008D00000C0000008950E94C4050E94A2030E9467
:1008E00089020E9449000E94AF01FDCF9091D9007A
:1008F000911112C096B1986096B996B1906296B96E
:1009000097B1907E97B997B1892B87B986B18064EA
:1009100086B981E08093D90008951F920F920FB697
:100920000F9211242F933F934F935F936F937F9375
:100930008F939F93AF93BF93EF93FF931092D90040
:10094000E0916000F091610009958091D8000E94CB
:1009500076048091D800813011F41092D8008091F3
:10096000D800811103C08F5F8093D800FF91EF9171
:10097000BF91AF919F918F917F916F915F914F91B7
:100980003F912F910F900FBE0F901F901895982FA9
:100990009770869586958695613009F455C020F04C
:1009A000623009F4A1C008958130C1F028F082308E
:1009B00039F18330B9F108954AB321E030E0B9014B
:1009C00002C0660F771F9A95E2F7CB01942F982B00
:1009D0009ABB9BB3809589238BBB089547B321E0D5
:1009E00030E0B90102C0660F771F9A95E2F7CB019C
:1009F000942F982B97BB98B38095892388BB089533
:100A000044B321E030E0B90102C0660F771F9A9528
:100A1000E2F7CB01942F982B94BB95B38095892353
:100A200085BB089541B321E030E0B90102C0660FF3
:100A3000771F9A95E2F7CB01942F982B91BB92B335
:100A40008095892382BB08958130C1F028F08230DF
:100A500039F18330B9F108954AB321E030E0B901AA
:100A600002C0660F771F9A95E2F7CB018095942F0D
:100A700098239ABB9BB389238BBB089547B321E08E
:100A800030E0B90102C0660F771F9A95E2F7CB01FB
:100A90008095942F982397BB98B3892388BB08959A
:100AA00044B321E030E0B90102C0660F771F9A9588
:100AB000E2F7CB018095942F982394BB95B38923BB
:100AC00085BB089541B321E030E0B90102C0660F53
:100AD000771F9A95E2F7CB018095942F982391BBCD
:100AE00092B3892382BB08958130C1F028F082300F
:100AF00039F18330B9F108954AB321E030E0B9010A
:100B000002C0660F771F9A95E2F7CB01962F90955A
:100B100094239ABB9BB3892B8BBB089547B321E0E9
:100B200030E0B90102C0660F771F9A95E2F7CB015A
:100B3000962F9095942397BB98B3892B88BB0895E3
:100B400044B321E030E0B90102C0660F771F9A95E7
:100B5000E2F7CB01962F9095942394BB95B3892B04
:100B600085BB089541B321E030E0B90102C0660FB2
:100B7000771F9A95E2F7CB01962F9095942391BB1E
:100B800092B3892B82BB0895CF93C0E009C0EC2FAC
:100B9000F0E0E358FF4F60818C2F0E94C704CF5FC5
:100BA000C032A8F3CF910895982F977086958695B7
:100BB00086956130E1F5813099F028F08230E9F0D6
:100BC000833041F108954BB321E030E0B90102C018
:100BD000660F771F9A95E2F7CB01842B8BBB0895A4
:100BE00048B321E030E0B90102C0660F771F9A9543
:100BF000E2F7CB01842B88BB089545B321E030E0B8
:100C0000B90102C0660F771F9A95E2F7CB01842BDA
:100C100085BB089542B321E030E0B90102C0660F00
:100C2000771F9A95E2F7CB01842B82BB0895813020
:100C3000A1F028F08230F9F0833059F108954BB3D8
:100C400021E030E0B90102C0660F771F9A95E2F704
:100C5000CB01809584238BBB089548B321E030E01D
:100C6000B90102C0660F771F9A95E2F7CB01809514
:100C7000842388BB089545B321E030E0B90102C068
:100C8000660F771F9A95E2F7CB018095842385BB89
:100C9000089542B321E030E0B90102C0660F771F2A
:100CA0009A95E2F7CB018095842382BB0895282F83
:100CB0002770869586958695813079F028F0823068
:100CC000A9F08330E1F024C089B390E002C095958B
:100CD00087952A95E2F78170089586B390E002C067
:100CE000959587952A95E2F78170089583B390E0F2
:100CF00002C0959587952A95E2F78170089580B393
:100D000090E002C0959587952A95E2F78170089545
:100D100080E008951F920F920FB60F9211242F9327
:100D20003F934F935F936F937F938F939F93AF9373
:100D3000BF93EF93FF93E0916600F0916700E2307C
:100D4000F10509F00995FF91EF91BF91AF919F9146
:100D50008F917F916F915F914F913F912F910F9064
:100D60000FBE0F901F9018951F920F920FB60F9203
:100D700011242F933F934F935F936F937F938F93A0
:100D80009F93AF93BF93EF93FF93E0916400F09133
:100D90006500E230F10509F00995FF91EF91BF91EF
:100DA000AF919F918F917F916F915F914F913F9103
:100DB0002F910F900FBE0F901F9018951F920F92BA
:100DC0000FB60F9211242F933F934F935F936F931E
:100DD0007F938F939F93AF93BF93EF93FF93E09194
:100DE0006200F0916300E230F10509F00995FF918E
:100DF000EF91BF91AF919F918F917F916F915F9193
:100E00004F913F912F910F900FBE0F901F9018950B
:100E100097FB072E16F4009407D077FD09D00E94A7
:100E20005D0707FC05D03EF4909581959F4F08958E
:100E3000709561957F4F0895A1E21A2EAA1BBB1BE6
:100E4000FD010DC0AA1FBB1FEE1FFF1FA217B30796
:100E5000E407F50720F0A21BB30BE40BF50B661FAC
:100E6000771F881F991F1A9469F760957095809570
:100E700090959B01AC01BD01CF010895052E97FB14
:100E80001EF400940E94550757FD07D00E941C07CE
:100E900007FC03D04EF40C945507509540953095BF
:100EA00021953F4F4F4F5F4F0895909580957095D6
:100EB00061957F4F8F4F9F4F0895AA1BBB1B51E138
:100EC00007C0AA1FBB1FA617B70710F0A61BB70BBA
:100ED000881F991F5A95A9F780959095BC01CD015F
:060EE0000895F894FFCF15
:100EE600020002000200020057656C636F6D652EFA
:100EF6002E2100726573756C74203D20000101007F
:100F060000000000000000000000000000000000DB
:100F1600000000000000010202010101013738391A
:100F2600202F343536202A313233202D43303D20D0
:020F36002B008E
:00000001FF
